{
    "contractName": "Liblock",
    "abi": [
        {
            "inputs": [],
            "stateMutability": "nonpayable",
            "type": "constructor"
        },
        {
            "inputs": [],
            "name": "InvalidShortString",
            "type": "error"
        },
        {
            "inputs": [
                {
                    "internalType": "string",
                    "name": "str",
                    "type": "string"
                }
            ],
            "name": "StringTooLong",
            "type": "error"
        },
        {
            "anonymous": false,
            "inputs": [
                {
                    "indexed": true,
                    "internalType": "address",
                    "name": "owner",
                    "type": "address"
                },
                {
                    "indexed": true,
                    "internalType": "address",
                    "name": "spender",
                    "type": "address"
                },
                {
                    "indexed": false,
                    "internalType": "uint256",
                    "name": "value",
                    "type": "uint256"
                }
            ],
            "name": "Approval",
            "type": "event"
        },
        {
            "anonymous": false,
            "inputs": [
                {
                    "indexed": true,
                    "internalType": "address",
                    "name": "delegator",
                    "type": "address"
                },
                {
                    "indexed": true,
                    "internalType": "address",
                    "name": "fromDelegate",
                    "type": "address"
                },
                {
                    "indexed": true,
                    "internalType": "address",
                    "name": "toDelegate",
                    "type": "address"
                }
            ],
            "name": "DelegateChanged",
            "type": "event"
        },
        {
            "anonymous": false,
            "inputs": [
                {
                    "indexed": true,
                    "internalType": "address",
                    "name": "delegate",
                    "type": "address"
                },
                {
                    "indexed": false,
                    "internalType": "uint256",
                    "name": "previousBalance",
                    "type": "uint256"
                },
                {
                    "indexed": false,
                    "internalType": "uint256",
                    "name": "newBalance",
                    "type": "uint256"
                }
            ],
            "name": "DelegateVotesChanged",
            "type": "event"
        },
        {
            "anonymous": false,
            "inputs": [],
            "name": "EIP712DomainChanged",
            "type": "event"
        },
        {
            "anonymous": false,
            "inputs": [
                {
                    "indexed": true,
                    "internalType": "bytes32",
                    "name": "role",
                    "type": "bytes32"
                },
                {
                    "indexed": true,
                    "internalType": "bytes32",
                    "name": "previousAdminRole",
                    "type": "bytes32"
                },
                {
                    "indexed": true,
                    "internalType": "bytes32",
                    "name": "newAdminRole",
                    "type": "bytes32"
                }
            ],
            "name": "RoleAdminChanged",
            "type": "event"
        },
        {
            "anonymous": false,
            "inputs": [
                {
                    "indexed": true,
                    "internalType": "bytes32",
                    "name": "role",
                    "type": "bytes32"
                },
                {
                    "indexed": true,
                    "internalType": "address",
                    "name": "account",
                    "type": "address"
                },
                {
                    "indexed": true,
                    "internalType": "address",
                    "name": "sender",
                    "type": "address"
                }
            ],
            "name": "RoleGranted",
            "type": "event"
        },
        {
            "anonymous": false,
            "inputs": [
                {
                    "indexed": true,
                    "internalType": "bytes32",
                    "name": "role",
                    "type": "bytes32"
                },
                {
                    "indexed": true,
                    "internalType": "address",
                    "name": "account",
                    "type": "address"
                },
                {
                    "indexed": true,
                    "internalType": "address",
                    "name": "sender",
                    "type": "address"
                }
            ],
            "name": "RoleRevoked",
            "type": "event"
        },
        {
            "anonymous": false,
            "inputs": [
                {
                    "indexed": true,
                    "internalType": "address",
                    "name": "from",
                    "type": "address"
                },
                {
                    "indexed": true,
                    "internalType": "address",
                    "name": "to",
                    "type": "address"
                },
                {
                    "indexed": false,
                    "internalType": "uint256",
                    "name": "value",
                    "type": "uint256"
                }
            ],
            "name": "Transfer",
            "type": "event"
        },
        {
            "inputs": [],
            "name": "CLOCK_MODE",
            "outputs": [
                {
                    "internalType": "string",
                    "name": "",
                    "type": "string"
                }
            ],
            "stateMutability": "view",
            "type": "function"
        },
        {
            "inputs": [],
            "name": "DEFAULT_ADMIN_ROLE",
            "outputs": [
                {
                    "internalType": "bytes32",
                    "name": "",
                    "type": "bytes32"
                }
            ],
            "stateMutability": "view",
            "type": "function"
        },
        {
            "inputs": [],
            "name": "DOMAIN_SEPARATOR",
            "outputs": [
                {
                    "internalType": "bytes32",
                    "name": "",
                    "type": "bytes32"
                }
            ],
            "stateMutability": "view",
            "type": "function"
        },
        {
            "inputs": [
                {
                    "internalType": "address",
                    "name": "owner",
                    "type": "address"
                },
                {
                    "internalType": "address",
                    "name": "spender",
                    "type": "address"
                }
            ],
            "name": "allowance",
            "outputs": [
                {
                    "internalType": "uint256",
                    "name": "",
                    "type": "uint256"
                }
            ],
            "stateMutability": "view",
            "type": "function"
        },
        {
            "inputs": [
                {
                    "internalType": "address",
                    "name": "spender",
                    "type": "address"
                },
                {
                    "internalType": "uint256",
                    "name": "amount",
                    "type": "uint256"
                }
            ],
            "name": "approve",
            "outputs": [
                {
                    "internalType": "bool",
                    "name": "",
                    "type": "bool"
                }
            ],
            "stateMutability": "nonpayable",
            "type": "function"
        },
        {
            "inputs": [
                {
                    "internalType": "address",
                    "name": "account",
                    "type": "address"
                }
            ],
            "name": "balanceOf",
            "outputs": [
                {
                    "internalType": "uint256",
                    "name": "",
                    "type": "uint256"
                }
            ],
            "stateMutability": "view",
            "type": "function"
        },
        {
            "inputs": [
                {
                    "internalType": "uint256",
                    "name": "amount",
                    "type": "uint256"
                }
            ],
            "name": "burn",
            "outputs": [],
            "stateMutability": "nonpayable",
            "type": "function"
        },
        {
            "inputs": [
                {
                    "internalType": "address",
                    "name": "account",
                    "type": "address"
                },
                {
                    "internalType": "uint256",
                    "name": "amount",
                    "type": "uint256"
                }
            ],
            "name": "burnFrom",
            "outputs": [],
            "stateMutability": "nonpayable",
            "type": "function"
        },
        {
            "inputs": [
                {
                    "internalType": "address",
                    "name": "account",
                    "type": "address"
                },
                {
                    "internalType": "uint32",
                    "name": "pos",
                    "type": "uint32"
                }
            ],
            "name": "checkpoints",
            "outputs": [
                {
                    "components": [
                        {
                            "internalType": "uint32",
                            "name": "fromBlock",
                            "type": "uint32"
                        },
                        {
                            "internalType": "uint224",
                            "name": "votes",
                            "type": "uint224"
                        }
                    ],
                    "internalType": "struct ERC20Votes.Checkpoint",
                    "name": "",
                    "type": "tuple"
                }
            ],
            "stateMutability": "view",
            "type": "function"
        },
        {
            "inputs": [],
            "name": "clock",
            "outputs": [
                {
                    "internalType": "uint48",
                    "name": "",
                    "type": "uint48"
                }
            ],
            "stateMutability": "view",
            "type": "function"
        },
        {
            "inputs": [],
            "name": "decimals",
            "outputs": [
                {
                    "internalType": "uint8",
                    "name": "",
                    "type": "uint8"
                }
            ],
            "stateMutability": "view",
            "type": "function"
        },
        {
            "inputs": [
                {
                    "internalType": "address",
                    "name": "spender",
                    "type": "address"
                },
                {
                    "internalType": "uint256",
                    "name": "subtractedValue",
                    "type": "uint256"
                }
            ],
            "name": "decreaseAllowance",
            "outputs": [
                {
                    "internalType": "bool",
                    "name": "",
                    "type": "bool"
                }
            ],
            "stateMutability": "nonpayable",
            "type": "function"
        },
        {
            "inputs": [
                {
                    "internalType": "address",
                    "name": "delegatee",
                    "type": "address"
                }
            ],
            "name": "delegate",
            "outputs": [],
            "stateMutability": "nonpayable",
            "type": "function"
        },
        {
            "inputs": [
                {
                    "internalType": "address",
                    "name": "delegator",
                    "type": "address"
                },
                {
                    "internalType": "address",
                    "name": "delegatee",
                    "type": "address"
                }
            ],
            "name": "delegate",
            "outputs": [],
            "stateMutability": "nonpayable",
            "type": "function"
        },
        {
            "inputs": [
                {
                    "internalType": "address",
                    "name": "delegatee",
                    "type": "address"
                },
                {
                    "internalType": "uint256",
                    "name": "nonce",
                    "type": "uint256"
                },
                {
                    "internalType": "uint256",
                    "name": "expiry",
                    "type": "uint256"
                },
                {
                    "internalType": "uint8",
                    "name": "v",
                    "type": "uint8"
                },
                {
                    "internalType": "bytes32",
                    "name": "r",
                    "type": "bytes32"
                },
                {
                    "internalType": "bytes32",
                    "name": "s",
                    "type": "bytes32"
                }
            ],
            "name": "delegateBySig",
            "outputs": [],
            "stateMutability": "nonpayable",
            "type": "function"
        },
        {
            "inputs": [
                {
                    "internalType": "address",
                    "name": "account",
                    "type": "address"
                }
            ],
            "name": "delegates",
            "outputs": [
                {
                    "internalType": "address",
                    "name": "",
                    "type": "address"
                }
            ],
            "stateMutability": "view",
            "type": "function"
        },
        {
            "inputs": [],
            "name": "eip712Domain",
            "outputs": [
                {
                    "internalType": "bytes1",
                    "name": "fields",
                    "type": "bytes1"
                },
                {
                    "internalType": "string",
                    "name": "name",
                    "type": "string"
                },
                {
                    "internalType": "string",
                    "name": "version",
                    "type": "string"
                },
                {
                    "internalType": "uint256",
                    "name": "chainId",
                    "type": "uint256"
                },
                {
                    "internalType": "address",
                    "name": "verifyingContract",
                    "type": "address"
                },
                {
                    "internalType": "bytes32",
                    "name": "salt",
                    "type": "bytes32"
                },
                {
                    "internalType": "uint256[]",
                    "name": "extensions",
                    "type": "uint256[]"
                }
            ],
            "stateMutability": "view",
            "type": "function"
        },
        {
            "inputs": [
                {
                    "internalType": "uint256",
                    "name": "timepoint",
                    "type": "uint256"
                }
            ],
            "name": "getPastTotalSupply",
            "outputs": [
                {
                    "internalType": "uint256",
                    "name": "",
                    "type": "uint256"
                }
            ],
            "stateMutability": "view",
            "type": "function"
        },
        {
            "inputs": [
                {
                    "internalType": "address",
                    "name": "account",
                    "type": "address"
                },
                {
                    "internalType": "uint256",
                    "name": "timepoint",
                    "type": "uint256"
                }
            ],
            "name": "getPastVotes",
            "outputs": [
                {
                    "internalType": "uint256",
                    "name": "",
                    "type": "uint256"
                }
            ],
            "stateMutability": "view",
            "type": "function"
        },
        {
            "inputs": [
                {
                    "internalType": "bytes32",
                    "name": "role",
                    "type": "bytes32"
                }
            ],
            "name": "getRoleAdmin",
            "outputs": [
                {
                    "internalType": "bytes32",
                    "name": "",
                    "type": "bytes32"
                }
            ],
            "stateMutability": "view",
            "type": "function"
        },
        {
            "inputs": [
                {
                    "internalType": "address",
                    "name": "account",
                    "type": "address"
                }
            ],
            "name": "getVotes",
            "outputs": [
                {
                    "internalType": "uint256",
                    "name": "",
                    "type": "uint256"
                }
            ],
            "stateMutability": "view",
            "type": "function"
        },
        {
            "inputs": [
                {
                    "internalType": "bytes32",
                    "name": "role",
                    "type": "bytes32"
                },
                {
                    "internalType": "address",
                    "name": "account",
                    "type": "address"
                }
            ],
            "name": "grantRole",
            "outputs": [],
            "stateMutability": "nonpayable",
            "type": "function"
        },
        {
            "inputs": [
                {
                    "internalType": "bytes32",
                    "name": "role",
                    "type": "bytes32"
                },
                {
                    "internalType": "address",
                    "name": "account",
                    "type": "address"
                }
            ],
            "name": "hasRole",
            "outputs": [
                {
                    "internalType": "bool",
                    "name": "",
                    "type": "bool"
                }
            ],
            "stateMutability": "view",
            "type": "function"
        },
        {
            "inputs": [
                {
                    "internalType": "address",
                    "name": "spender",
                    "type": "address"
                },
                {
                    "internalType": "uint256",
                    "name": "addedValue",
                    "type": "uint256"
                }
            ],
            "name": "increaseAllowance",
            "outputs": [
                {
                    "internalType": "bool",
                    "name": "",
                    "type": "bool"
                }
            ],
            "stateMutability": "nonpayable",
            "type": "function"
        },
        {
            "inputs": [],
            "name": "name",
            "outputs": [
                {
                    "internalType": "string",
                    "name": "",
                    "type": "string"
                }
            ],
            "stateMutability": "view",
            "type": "function"
        },
        {
            "inputs": [
                {
                    "internalType": "address",
                    "name": "owner",
                    "type": "address"
                }
            ],
            "name": "nonces",
            "outputs": [
                {
                    "internalType": "uint256",
                    "name": "",
                    "type": "uint256"
                }
            ],
            "stateMutability": "view",
            "type": "function"
        },
        {
            "inputs": [
                {
                    "internalType": "address",
                    "name": "account",
                    "type": "address"
                }
            ],
            "name": "numCheckpoints",
            "outputs": [
                {
                    "internalType": "uint32",
                    "name": "",
                    "type": "uint32"
                }
            ],
            "stateMutability": "view",
            "type": "function"
        },
        {
            "inputs": [
                {
                    "internalType": "address",
                    "name": "owner",
                    "type": "address"
                },
                {
                    "internalType": "address",
                    "name": "spender",
                    "type": "address"
                },
                {
                    "internalType": "uint256",
                    "name": "value",
                    "type": "uint256"
                },
                {
                    "internalType": "uint256",
                    "name": "deadline",
                    "type": "uint256"
                },
                {
                    "internalType": "uint8",
                    "name": "v",
                    "type": "uint8"
                },
                {
                    "internalType": "bytes32",
                    "name": "r",
                    "type": "bytes32"
                },
                {
                    "internalType": "bytes32",
                    "name": "s",
                    "type": "bytes32"
                }
            ],
            "name": "permit",
            "outputs": [],
            "stateMutability": "nonpayable",
            "type": "function"
        },
        {
            "inputs": [
                {
                    "internalType": "bytes32",
                    "name": "role",
                    "type": "bytes32"
                },
                {
                    "internalType": "address",
                    "name": "account",
                    "type": "address"
                }
            ],
            "name": "renounceRole",
            "outputs": [],
            "stateMutability": "nonpayable",
            "type": "function"
        },
        {
            "inputs": [
                {
                    "internalType": "bytes32",
                    "name": "role",
                    "type": "bytes32"
                },
                {
                    "internalType": "address",
                    "name": "account",
                    "type": "address"
                }
            ],
            "name": "revokeRole",
            "outputs": [],
            "stateMutability": "nonpayable",
            "type": "function"
        },
        {
            "inputs": [
                {
                    "internalType": "bytes4",
                    "name": "interfaceId",
                    "type": "bytes4"
                }
            ],
            "name": "supportsInterface",
            "outputs": [
                {
                    "internalType": "bool",
                    "name": "",
                    "type": "bool"
                }
            ],
            "stateMutability": "view",
            "type": "function"
        },
        {
            "inputs": [],
            "name": "symbol",
            "outputs": [
                {
                    "internalType": "string",
                    "name": "",
                    "type": "string"
                }
            ],
            "stateMutability": "view",
            "type": "function"
        },
        {
            "inputs": [],
            "name": "totalSupply",
            "outputs": [
                {
                    "internalType": "uint256",
                    "name": "",
                    "type": "uint256"
                }
            ],
            "stateMutability": "view",
            "type": "function"
        },
        {
            "inputs": [
                {
                    "internalType": "address",
                    "name": "to",
                    "type": "address"
                },
                {
                    "internalType": "uint256",
                    "name": "amount",
                    "type": "uint256"
                }
            ],
            "name": "transfer",
            "outputs": [
                {
                    "internalType": "bool",
                    "name": "",
                    "type": "bool"
                }
            ],
            "stateMutability": "nonpayable",
            "type": "function"
        },
        {
            "inputs": [
                {
                    "internalType": "address",
                    "name": "from",
                    "type": "address"
                },
                {
                    "internalType": "address",
                    "name": "to",
                    "type": "address"
                },
                {
                    "internalType": "uint256",
                    "name": "amount",
                    "type": "uint256"
                }
            ],
            "name": "transferFrom",
            "outputs": [
                {
                    "internalType": "bool",
                    "name": "",
                    "type": "bool"
                }
            ],
            "stateMutability": "nonpayable",
            "type": "function"
        }
    ],
    "bytecode": "6101606040523480156200001257600080fd5b50604051806040016040528060078152602001664c69626c6f636b60c81b81525080604051806040016040528060018152602001603160f81b815250604051806040016040528060078152602001664c69626c6f636b60c81b815250604051806040016040528060038152602001622624a160e91b81525081600390816200009b919062000997565b506004620000aa828262000997565b50620000bc91508390506006620001c2565b61012052620000cd816007620001c2565b61014052815160208084019190912060e052815190820120610100524660a0526200015b60e05161010051604080517f8b73c3c69bb8fe3d512ecc4cf759cc79239f7b179b0ffacaa9a75d522b39400f60208201529081019290925260608201524660808201523060a082015260009060c00160405160208183030381529060405280519060200120905090565b60805250503060c052506200018c33620001786012600a62000b76565b62000186906103e862000b87565b620001fb565b620001af306200019f6012600a62000b76565b62000186906303dfce5862000b87565b620001bc6000336200020b565b62000c42565b6000602083511015620001e257620001da83620002af565b9050620001f5565b81620001ef848262000997565b5060ff90505b92915050565b620002078282620002fb565b5050565b60008281526005602090815260408083206001600160a01b038516845290915290205460ff16620002075760008281526005602090815260408083206001600160a01b03851684529091529020805460ff191660011790556200026b3390565b6001600160a01b0316816001600160a01b0316837f2f8788117e7eff1d82e926ec794901d17c78024a50270940304540a733656f0d60405160405180910390a45050565b600080829050601f81511115620002e6578260405163305a27a960e01b8152600401620002dd919062000ba1565b60405180910390fd5b8051620002f38262000bf1565b179392505050565b620003078282620003a3565b6001600160e01b036200031b620004708216565b1115620003845760405162461bcd60e51b815260206004820152603060248201527f4552433230566f7465733a20746f74616c20737570706c79207269736b73206f60448201526f766572666c6f77696e6720766f74657360801b6064820152608401620002dd565b6200039d600c62000e656200047660201b17836200048b565b50505050565b6001600160a01b038216620003fb5760405162461bcd60e51b815260206004820152601f60248201527f45524332303a206d696e7420746f20746865207a65726f2061646472657373006044820152606401620002dd565b80600260008282546200040f919062000c16565b90915550506001600160a01b038216600081815260208181526040808320805486019055518481527fddf252ad1be2c89b69c2b068fc378daa952ba7f163c4a11628f55a4df523b3ef910160405180910390a3620002076000838362000618565b60025490565b600062000484828462000c16565b9392505050565b82546000908190818115620004da5760008781526020902082016000190160408051808201909152905463ffffffff8116825264010000000090046001600160e01b03166020820152620004ef565b60408051808201909152600080825260208201525b905080602001516001600160e01b031693506200050d84868860201c565b92506000821180156200053a57506200052562000625565b65ffffffffffff16816000015163ffffffff16145b1562000583576200054b8362000637565b60008881526020902083016000190180546001600160e01b03929092166401000000000263ffffffff90921691909117905562000609565b866040518060400160405280620005b1620005a36200062560201b60201c565b65ffffffffffff16620006a6565b63ffffffff168152602001620005c78662000637565b6001600160e01b0390811690915282546001810184556000938452602093849020835194909301519091166401000000000263ffffffff909316929092179101555b5050935093915050565b505050565b620006138383836200070d565b6000620006324362000741565b905090565b60006001600160e01b03821115620006a25760405162461bcd60e51b815260206004820152602760248201527f53616665436173743a2076616c756520646f65736e27742066697420696e20326044820152663234206269747360c81b6064820152608401620002dd565b5090565b600063ffffffff821115620006a25760405162461bcd60e51b815260206004820152602660248201527f53616665436173743a2076616c756520646f65736e27742066697420696e203360448201526532206269747360d01b6064820152608401620002dd565b6001600160a01b038381166000908152600a60205260408082205485841683529120546200061392918216911683620007aa565b600065ffffffffffff821115620006a25760405162461bcd60e51b815260206004820152602660248201527f53616665436173743a2076616c756520646f65736e27742066697420696e203460448201526538206269747360d01b6064820152608401620002dd565b816001600160a01b0316836001600160a01b031614158015620007cd5750600081115b1562000613576001600160a01b038316156200085a576001600160a01b0383166000908152600b6020908152604082208291620008179190620008e5901b62000e7117856200048b565b91509150846001600160a01b0316600080516020620033bf83398151915283836040516200084f929190918252602082015260400190565b60405180910390a250505b6001600160a01b0382161562000613576001600160a01b0382166000908152600b60209081526040822082916200089e919062000476901b62000e6517856200048b565b91509150836001600160a01b0316600080516020620033bf8339815191528383604051620008d6929190918252602082015260400190565b60405180910390a25050505050565b600062000484828462000c2c565b634e487b7160e01b600052604160045260246000fd5b600181811c908216806200091e57607f821691505b6020821081036200093f57634e487b7160e01b600052602260045260246000fd5b50919050565b601f8211156200061357600081815260208120601f850160051c810160208610156200096e5750805b601f850160051c820191505b818110156200098f578281556001016200097a565b505050505050565b81516001600160401b03811115620009b357620009b3620008f3565b620009cb81620009c4845462000909565b8462000945565b602080601f83116001811462000a035760008415620009ea5750858301515b600019600386901b1c1916600185901b1785556200098f565b600085815260208120601f198616915b8281101562000a345788860151825594840194600190910190840162000a13565b508582101562000a535787850151600019600388901b60f8161c191681555b5050505050600190811b01905550565b634e487b7160e01b600052601160045260246000fd5b600181815b8085111562000aba57816000190482111562000a9e5762000a9e62000a63565b8085161562000aac57918102915b93841c939080029062000a7e565b509250929050565b60008262000ad357506001620001f5565b8162000ae257506000620001f5565b816001811462000afb576002811462000b065762000b26565b6001915050620001f5565b60ff84111562000b1a5762000b1a62000a63565b50506001821b620001f5565b5060208310610133831016604e8410600b841016171562000b4b575081810a620001f5565b62000b57838362000a79565b806000190482111562000b6e5762000b6e62000a63565b029392505050565b60006200048460ff84168362000ac2565b8082028115828204841417620001f557620001f562000a63565b600060208083528351808285015260005b8181101562000bd05785810183015185820160400152820162000bb2565b506000604082860101526040601f19601f8301168501019250505092915050565b805160208083015191908110156200093f5760001960209190910360031b1b16919050565b80820180821115620001f557620001f562000a63565b81810381811115620001f557620001f562000a63565b60805160a05160c05160e05161010051610120516101405161272262000c9d60003960006108e6015260006108bb0152600061132f01526000611307015260006112620152600061128c015260006112b601526127226000f3fe608060405234801561001057600080fd5b50600436106102115760003560e01c806370a08231116101255780639ab24eb0116100ad578063c3cda5201161007c578063c3cda520146104b8578063d505accf146104cb578063d547741f146104de578063dd62ed3e146104f1578063f1127ed81461050457600080fd5b80639ab24eb014610477578063a217fddf1461048a578063a457c2d714610492578063a9059cbb146104a557600080fd5b80638ab65686116100f45780638ab65686146104175780638e539e8c1461042a57806391d148541461043d57806391ddadf41461045057806395d89b411461046f57600080fd5b806370a08231146103ad57806379cc6790146103d65780637ecebe00146103e957806384b0196e146103fc57600080fd5b80633644e515116101a857806342966c681161017757806342966c68146103135780634bf5d7e914610326578063587cde1e1461032e5780635c19a95c146103725780636fcfff451461038557600080fd5b80633644e515146102d257806336568abe146102da57806339509351146102ed5780633a46b1a81461030057600080fd5b806323b872dd116101e457806323b872dd14610278578063248a9ca31461028b5780632f2ff15d146102ae578063313ce567146102c357600080fd5b806301ffc9a71461021657806306fdde031461023e578063095ea7b31461025357806318160ddd14610266575b600080fd5b61022961022436600461221d565b610541565b60405190151581526020015b60405180910390f35b610246610578565b6040516102359190612297565b6102296102613660046122c6565b61060a565b6002545b604051908152602001610235565b6102296102863660046122f0565b610622565b61026a61029936600461232c565b60009081526005602052604090206001015490565b6102c16102bc366004612345565b610646565b005b60405160128152602001610235565b61026a610670565b6102c16102e8366004612345565b61067f565b6102296102fb3660046122c6565b610702565b61026a61030e3660046122c6565b610724565b6102c161032136600461232c565b6107a9565b6102466107b6565b61035a61033c366004612371565b6001600160a01b039081166000908152600a60205260409020541690565b6040516001600160a01b039091168152602001610235565b6102c1610380366004612371565b61084e565b610398610393366004612371565b610858565b60405163ffffffff9091168152602001610235565b61026a6103bb366004612371565b6001600160a01b031660009081526020819052604090205490565b6102c16103e43660046122c6565b61087a565b61026a6103f7366004612371565b61088f565b6104046108ad565b604051610235979695949392919061238c565b6102c1610425366004612422565b610936565b61026a61043836600461232c565b610940565b61022961044b366004612345565b6109a7565b6104586109d2565b60405165ffffffffffff9091168152602001610235565b6102466109dd565b61026a610485366004612371565b6109ec565b61026a600081565b6102296104a03660046122c6565b610a6e565b6102296104b33660046122c6565b610ae9565b6102c16104c636600461245d565b610af7565b6102c16104d93660046124b5565b610c2d565b6102c16104ec366004612345565b610d91565b61026a6104ff366004612422565b610db6565b61051761051236600461251f565b610de1565b60408051825163ffffffff1681526020928301516001600160e01b03169281019290925201610235565b60006001600160e01b03198216637965db0b60e01b148061057257506301ffc9a760e01b6001600160e01b03198316145b92915050565b6060600380546105879061255f565b80601f01602080910402602001604051908101604052809291908181526020018280546105b39061255f565b80156106005780601f106105d557610100808354040283529160200191610600565b820191906000526020600020905b8154815290600101906020018083116105e357829003601f168201915b5050505050905090565b600033610618818585610e7d565b5060019392505050565b600033610630858285610fa1565b61063b85858561101b565b506001949350505050565b600082815260056020526040902060010154610661816111c5565b61066b83836111cf565b505050565b600061067a611255565b905090565b6001600160a01b03811633146106f45760405162461bcd60e51b815260206004820152602f60248201527f416363657373436f6e74726f6c3a2063616e206f6e6c792072656e6f756e636560448201526e103937b632b9903337b91039b2b63360891b60648201526084015b60405180910390fd5b6106fe8282611380565b5050565b6000336106188185856107158383610db6565b61071f91906125a9565b610e7d565b600061072e6109d2565b65ffffffffffff1682106107805760405162461bcd60e51b815260206004820152601960248201527804552433230566f7465733a20667574757265206c6f6f6b757603c1b60448201526064016106eb565b6001600160a01b0383166000908152600b602052604090206107a290836113e7565b9392505050565b6107b333826114d0565b50565b6060436107c16109d2565b65ffffffffffff16146108165760405162461bcd60e51b815260206004820152601d60248201527f4552433230566f7465733a2062726f6b656e20636c6f636b206d6f646500000060448201526064016106eb565b5060408051808201909152601d81527f6d6f64653d626c6f636b6e756d6265722666726f6d3d64656661756c74000000602082015290565b6107b333826114da565b6001600160a01b0381166000908152600b602052604081205461057290611553565b610885823383610fa1565b6106fe82826114d0565b6001600160a01b038116600090815260086020526040812054610572565b6000606080828080836108e17f000000000000000000000000000000000000000000000000000000000000000060066115bc565b61090c7f000000000000000000000000000000000000000000000000000000000000000060076115bc565b60408051600080825260208201909252600f60f81b9b939a50919850469750309650945092509050565b6106fe82826114da565b600061094a6109d2565b65ffffffffffff16821061099c5760405162461bcd60e51b815260206004820152601960248201527804552433230566f7465733a20667574757265206c6f6f6b757603c1b60448201526064016106eb565b610572600c836113e7565b60009182526005602090815260408084206001600160a01b0393909316845291905290205460ff1690565b600061067a43611667565b6060600480546105879061255f565b6001600160a01b0381166000908152600b60205260408120548015610a5b576001600160a01b0383166000908152600b6020526040902080546000198301908110610a3957610a396125d2565b60009182526020909120015464010000000090046001600160e01b0316610a5e565b60005b6001600160e01b03169392505050565b60003381610a7c8286610db6565b905083811015610adc5760405162461bcd60e51b815260206004820152602560248201527f45524332303a2064656372656173656420616c6c6f77616e63652062656c6f77604482015264207a65726f60d81b60648201526084016106eb565b61063b8286868403610e7d565b60003361061881858561101b565b83421115610b475760405162461bcd60e51b815260206004820152601d60248201527f4552433230566f7465733a207369676e6174757265206578706972656400000060448201526064016106eb565b604080517fe48329057bfd03d55e49b547132e39cffd9c1820ad7b9d4c5307691425d15adf60208201526001600160a01b038816918101919091526060810186905260808101859052600090610bc190610bb99060a001604051602081830303815290604052805190602001206116ce565b8585856116fb565b9050610bcc81611723565b8614610c1a5760405162461bcd60e51b815260206004820152601960248201527f4552433230566f7465733a20696e76616c6964206e6f6e63650000000000000060448201526064016106eb565b610c2481886114da565b50505050505050565b83421115610c7d5760405162461bcd60e51b815260206004820152601d60248201527f45524332305065726d69743a206578706972656420646561646c696e6500000060448201526064016106eb565b60007f6e71edae12b1b97f4d1f60370fef10105fa2faae0126114a169c64845d6126c9888888610cac8c611723565b6040805160208101969096526001600160a01b0394851690860152929091166060840152608083015260a082015260c0810186905260e0016040516020818303038152906040528051906020012090506000610d07826116ce565b90506000610d17828787876116fb565b9050896001600160a01b0316816001600160a01b031614610d7a5760405162461bcd60e51b815260206004820152601e60248201527f45524332305065726d69743a20696e76616c6964207369676e6174757265000060448201526064016106eb565b610d858a8a8a610e7d565b50505050505050505050565b600082815260056020526040902060010154610dac816111c5565b61066b8383611380565b6001600160a01b03918216600090815260016020908152604080832093909416825291909152205490565b60408051808201909152600080825260208201526001600160a01b0383166000908152600b60205260409020805463ffffffff8416908110610e2557610e256125d2565b60009182526020918290206040805180820190915291015463ffffffff8116825264010000000090046001600160e01b0316918101919091529392505050565b60006107a282846125a9565b60006107a282846125e8565b6001600160a01b038316610edf5760405162461bcd60e51b8152602060048201526024808201527f45524332303a20617070726f76652066726f6d20746865207a65726f206164646044820152637265737360e01b60648201526084016106eb565b6001600160a01b038216610f405760405162461bcd60e51b815260206004820152602260248201527f45524332303a20617070726f766520746f20746865207a65726f206164647265604482015261737360f01b60648201526084016106eb565b6001600160a01b0383811660008181526001602090815260408083209487168084529482529182902085905590518481527f8c5be1e5ebec7d5bd14f71427d1e84f3dd0314c0f7b2291e5b200ac8c7c3b925910160405180910390a3505050565b6000610fad8484610db6565b9050600019811461101557818110156110085760405162461bcd60e51b815260206004820152601d60248201527f45524332303a20696e73756666696369656e7420616c6c6f77616e636500000060448201526064016106eb565b6110158484848403610e7d565b50505050565b6001600160a01b03831661107f5760405162461bcd60e51b815260206004820152602560248201527f45524332303a207472616e736665722066726f6d20746865207a65726f206164604482015264647265737360d81b60648201526084016106eb565b6001600160a01b0382166110e15760405162461bcd60e51b815260206004820152602360248201527f45524332303a207472616e7366657220746f20746865207a65726f206164647260448201526265737360e81b60648201526084016106eb565b6001600160a01b038316600090815260208190526040902054818110156111595760405162461bcd60e51b815260206004820152602660248201527f45524332303a207472616e7366657220616d6f756e7420657863656564732062604482015265616c616e636560d01b60648201526084016106eb565b6001600160a01b03848116600081815260208181526040808320878703905593871680835291849020805487019055925185815290927fddf252ad1be2c89b69c2b068fc378daa952ba7f163c4a11628f55a4df523b3ef910160405180910390a361101584848461174b565b6107b38133611756565b6111d982826109a7565b6106fe5760008281526005602090815260408083206001600160a01b03851684529091529020805460ff191660011790556112113390565b6001600160a01b0316816001600160a01b0316837f2f8788117e7eff1d82e926ec794901d17c78024a50270940304540a733656f0d60405160405180910390a45050565b6000306001600160a01b037f0000000000000000000000000000000000000000000000000000000000000000161480156112ae57507f000000000000000000000000000000000000000000000000000000000000000046145b156112d857507f000000000000000000000000000000000000000000000000000000000000000090565b61067a604080517f8b73c3c69bb8fe3d512ecc4cf759cc79239f7b179b0ffacaa9a75d522b39400f60208201527f0000000000000000000000000000000000000000000000000000000000000000918101919091527f000000000000000000000000000000000000000000000000000000000000000060608201524660808201523060a082015260009060c00160405160208183030381529060405280519060200120905090565b61138a82826109a7565b156106fe5760008281526005602090815260408083206001600160a01b0385168085529252808320805460ff1916905551339285917ff6391f5c32d9c69d2a47ea670b442974b53935d1edc7fd64eb21e047a839171b9190a45050565b815460009081816005811115611441576000611402846117af565b61140c90856125e8565b600088815260209020909150869082015463ffffffff1611156114315780915061143f565b61143c8160016125a9565b92505b505b8082101561148e5760006114558383611897565b600088815260209020909150869082015463ffffffff16111561147a57809150611488565b6114858160016125a9565b92505b50611441565b80156114ba576000868152602090208101600019015464010000000090046001600160e01b03166114bd565b60005b6001600160e01b03169695505050505050565b6106fe82826118b2565b6001600160a01b038281166000818152600a60208181526040808420805485845282862054949093528787166001600160a01b03198416811790915590519190951694919391928592917f3134e8a2e6d97e929a7e54011ea5485d7d196dd5f0ba4d4ef95803e8e3fc257f9190a46110158284836118ca565b600063ffffffff8211156115b85760405162461bcd60e51b815260206004820152602660248201527f53616665436173743a2076616c756520646f65736e27742066697420696e203360448201526532206269747360d01b60648201526084016106eb565b5090565b606060ff83146115d6576115cf83611a07565b9050610572565b8180546115e29061255f565b80601f016020809104026020016040519081016040528092919081815260200182805461160e9061255f565b801561165b5780601f106116305761010080835404028352916020019161165b565b820191906000526020600020905b81548152906001019060200180831161163e57829003601f168201915b50505050509050610572565b600065ffffffffffff8211156115b85760405162461bcd60e51b815260206004820152602660248201527f53616665436173743a2076616c756520646f65736e27742066697420696e203460448201526538206269747360d01b60648201526084016106eb565b60006105726116db611255565b8360405161190160f01b8152600281019290925260228201526042902090565b600080600061170c87878787611a46565b9150915061171981611b0a565b5095945050505050565b6001600160a01b03811660009081526008602052604090208054600181018255905b50919050565b61066b838383611c54565b61176082826109a7565b6106fe5761176d81611c86565b611778836020611c98565b6040516020016117899291906125fb565b60408051601f198184030181529082905262461bcd60e51b82526106eb91600401612297565b6000816000036117c157506000919050565b600060016117ce84611e34565b901c6001901b905060018184816117e7576117e7612670565b048201901c905060018184816117ff576117ff612670565b048201901c9050600181848161181757611817612670565b048201901c9050600181848161182f5761182f612670565b048201901c9050600181848161184757611847612670565b048201901c9050600181848161185f5761185f612670565b048201901c9050600181848161187757611877612670565b048201901c90506107a28182858161189157611891612670565b04611ec8565b60006118a66002848418612686565b6107a2908484166125a9565b6118bc8282611ede565b611015600c610e7183612017565b816001600160a01b0316836001600160a01b0316141580156118ec5750600081115b1561066b576001600160a01b0383161561197a576001600160a01b0383166000908152600b60205260408120819061192790610e7185612017565b91509150846001600160a01b03167fdec2bacdd2f05b59de34da9b523dff8be42e5e38e818c82fdb0bae774387a724838360405161196f929190918252602082015260400190565b60405180910390a250505b6001600160a01b0382161561066b576001600160a01b0382166000908152600b6020526040812081906119b090610e6585612017565b91509150836001600160a01b03167fdec2bacdd2f05b59de34da9b523dff8be42e5e38e818c82fdb0bae774387a72483836040516119f8929190918252602082015260400190565b60405180910390a25050505050565b60606000611a148361218c565b604080516020808252818301909252919250600091906020820181803683375050509182525060208101929092525090565b6000807f7fffffffffffffffffffffffffffffff5d576e7357a4501ddfe92f46681b20a0831115611a7d5750600090506003611b01565b6040805160008082526020820180845289905260ff881692820192909252606081018690526080810185905260019060a0016020604051602081039080840390855afa158015611ad1573d6000803e3d6000fd5b5050604051601f1901519150506001600160a01b038116611afa57600060019250925050611b01565b9150600090505b94509492505050565b6000816004811115611b1e57611b1e6126a8565b03611b265750565b6001816004811115611b3a57611b3a6126a8565b03611b875760405162461bcd60e51b815260206004820152601860248201527f45434453413a20696e76616c6964207369676e6174757265000000000000000060448201526064016106eb565b6002816004811115611b9b57611b9b6126a8565b03611be85760405162461bcd60e51b815260206004820152601f60248201527f45434453413a20696e76616c6964207369676e6174757265206c656e6774680060448201526064016106eb565b6003816004811115611bfc57611bfc6126a8565b036107b35760405162461bcd60e51b815260206004820152602260248201527f45434453413a20696e76616c6964207369676e6174757265202773272076616c604482015261756560f01b60648201526084016106eb565b6001600160a01b038381166000908152600a602052604080822054858416835291205461066b929182169116836118ca565b60606105726001600160a01b03831660145b60606000611ca78360026126be565b611cb29060026125a9565b67ffffffffffffffff811115611cca57611cca6125bc565b6040519080825280601f01601f191660200182016040528015611cf4576020820181803683370190505b509050600360fc1b81600081518110611d0f57611d0f6125d2565b60200101906001600160f81b031916908160001a905350600f60fb1b81600181518110611d3e57611d3e6125d2565b60200101906001600160f81b031916908160001a9053506000611d628460026126be565b611d6d9060016125a9565b90505b6001811115611de5576f181899199a1a9b1b9c1cb0b131b232b360811b85600f1660108110611da157611da16125d2565b1a60f81b828281518110611db757611db76125d2565b60200101906001600160f81b031916908160001a90535060049490941c93611dde816126d5565b9050611d70565b5083156107a25760405162461bcd60e51b815260206004820181905260248201527f537472696e67733a20686578206c656e67746820696e73756666696369656e7460448201526064016106eb565b600080608083901c15611e4957608092831c92015b604083901c15611e5b57604092831c92015b602083901c15611e6d57602092831c92015b601083901c15611e7f57601092831c92015b600883901c15611e9157600892831c92015b600483901c15611ea357600492831c92015b600283901c15611eb557600292831c92015b600183901c156105725760010192915050565b6000818310611ed757816107a2565b5090919050565b6001600160a01b038216611f3e5760405162461bcd60e51b815260206004820152602160248201527f45524332303a206275726e2066726f6d20746865207a65726f206164647265736044820152607360f81b60648201526084016106eb565b6001600160a01b03821660009081526020819052604090205481811015611fb25760405162461bcd60e51b815260206004820152602260248201527f45524332303a206275726e20616d6f756e7420657863656564732062616c616e604482015261636560f01b60648201526084016106eb565b6001600160a01b0383166000818152602081815260408083208686039055600280548790039055518581529192917fddf252ad1be2c89b69c2b068fc378daa952ba7f163c4a11628f55a4df523b3ef910160405180910390a361066b8360008461174b565b825460009081908181156120645760008781526020902082016000190160408051808201909152905463ffffffff8116825264010000000090046001600160e01b03166020820152612079565b60408051808201909152600080825260208201525b905080602001516001600160e01b0316935061209984868863ffffffff16565b92506000821180156120c357506120ae6109d2565b65ffffffffffff16816000015163ffffffff16145b15612108576120d1836121b4565b60008881526020902083016000190180546001600160e01b03929092166401000000000263ffffffff909216919091179055612182565b86604051806040016040528061212c61211f6109d2565b65ffffffffffff16611553565b63ffffffff168152602001612140866121b4565b6001600160e01b0390811690915282546001810184556000938452602093849020835194909301519091166401000000000263ffffffff909316929092179101555b5050935093915050565b600060ff8216601f81111561057257604051632cd44ac360e21b815260040160405180910390fd5b60006001600160e01b038211156115b85760405162461bcd60e51b815260206004820152602760248201527f53616665436173743a2076616c756520646f65736e27742066697420696e20326044820152663234206269747360c81b60648201526084016106eb565b60006020828403121561222f57600080fd5b81356001600160e01b0319811681146107a257600080fd5b60005b8381101561226257818101518382015260200161224a565b50506000910152565b60008151808452612283816020860160208601612247565b601f01601f19169290920160200192915050565b6020815260006107a2602083018461226b565b80356001600160a01b03811681146122c157600080fd5b919050565b600080604083850312156122d957600080fd5b6122e2836122aa565b946020939093013593505050565b60008060006060848603121561230557600080fd5b61230e846122aa565b925061231c602085016122aa565b9150604084013590509250925092565b60006020828403121561233e57600080fd5b5035919050565b6000806040838503121561235857600080fd5b82359150612368602084016122aa565b90509250929050565b60006020828403121561238357600080fd5b6107a2826122aa565b60ff60f81b881681526000602060e0818401526123ac60e084018a61226b565b83810360408501526123be818a61226b565b606085018990526001600160a01b038816608086015260a0850187905284810360c0860152855180825283870192509083019060005b81811015612410578351835292840192918401916001016123f4565b50909c9b505050505050505050505050565b6000806040838503121561243557600080fd5b61243e836122aa565b9150612368602084016122aa565b803560ff811681146122c157600080fd5b60008060008060008060c0878903121561247657600080fd5b61247f876122aa565b9550602087013594506040870135935061249b6060880161244c565b92506080870135915060a087013590509295509295509295565b600080600080600080600060e0888a0312156124d057600080fd5b6124d9886122aa565b96506124e7602089016122aa565b955060408801359450606088013593506125036080890161244c565b925060a0880135915060c0880135905092959891949750929550565b6000806040838503121561253257600080fd5b61253b836122aa565b9150602083013563ffffffff8116811461255457600080fd5b809150509250929050565b600181811c9082168061257357607f821691505b60208210810361174557634e487b7160e01b600052602260045260246000fd5b634e487b7160e01b600052601160045260246000fd5b8082018082111561057257610572612593565b634e487b7160e01b600052604160045260246000fd5b634e487b7160e01b600052603260045260246000fd5b8181038181111561057257610572612593565b7f416363657373436f6e74726f6c3a206163636f756e7420000000000000000000815260008351612633816017850160208801612247565b7001034b99036b4b9b9b4b733903937b6329607d1b6017918401918201528351612664816028840160208801612247565b01602801949350505050565b634e487b7160e01b600052601260045260246000fd5b6000826126a357634e487b7160e01b600052601260045260246000fd5b500490565b634e487b7160e01b600052602160045260246000fd5b808202811582820484141761057257610572612593565b6000816126e4576126e4612593565b50600019019056fea2646970667358221220e01f62eb1a0cd646999567838a1d3f54f8d2cc9c72c4dc5dd3b4b5611306016064736f6c63430008130033dec2bacdd2f05b59de34da9b523dff8be42e5e38e818c82fdb0bae774387a724",
    "sourcePath": "c:/Users/Natha/OneDrive/Desktop/Programmes/Solidity/LiblockSol/liblock.sol",
    "compiler": {
        "name": "solc",
        "version": "0.8.19+commit.7dd6d404"
    },
    "functionHashes": {
        "CLOCK_MODE()": "4bf5d7e9",
        "DEFAULT_ADMIN_ROLE()": "a217fddf",
        "DOMAIN_SEPARATOR()": "3644e515",
        "allowance(address,address)": "dd62ed3e",
        "approve(address,uint256)": "095ea7b3",
        "balanceOf(address)": "70a08231",
        "burn(uint256)": "42966c68",
        "burnFrom(address,uint256)": "79cc6790",
        "checkpoints(address,uint32)": "f1127ed8",
        "clock()": "91ddadf4",
        "decimals()": "313ce567",
        "decreaseAllowance(address,uint256)": "a457c2d7",
        "delegate(address)": "5c19a95c",
        "delegate(address,address)": "8ab65686",
        "delegateBySig(address,uint256,uint256,uint8,bytes32,bytes32)": "c3cda520",
        "delegates(address)": "587cde1e",
        "eip712Domain()": "84b0196e",
        "getPastTotalSupply(uint256)": "8e539e8c",
        "getPastVotes(address,uint256)": "3a46b1a8",
        "getRoleAdmin(bytes32)": "248a9ca3",
        "getVotes(address)": "9ab24eb0",
        "grantRole(bytes32,address)": "2f2ff15d",
        "hasRole(bytes32,address)": "91d14854",
        "increaseAllowance(address,uint256)": "39509351",
        "name()": "06fdde03",
        "nonces(address)": "7ecebe00",
        "numCheckpoints(address)": "6fcfff45",
        "permit(address,address,uint256,uint256,uint8,bytes32,bytes32)": "d505accf",
        "renounceRole(bytes32,address)": "36568abe",
        "revokeRole(bytes32,address)": "d547741f",
        "supportsInterface(bytes4)": "01ffc9a7",
        "symbol()": "95d89b41",
        "totalSupply()": "18160ddd",
        "transfer(address,uint256)": "a9059cbb",
        "transferFrom(address,address,uint256)": "23b872dd"
    },
    "gasEstimates": {
        "creation": {
            "codeDepositCost": "2003600",
            "executionCost": "infinite",
            "totalCost": "infinite"
        },
        "external": {
            "CLOCK_MODE()": "infinite",
            "DEFAULT_ADMIN_ROLE()": "262",
            "DOMAIN_SEPARATOR()": "infinite",
            "allowance(address,address)": "infinite",
            "approve(address,uint256)": "24681",
            "balanceOf(address)": "2586",
            "burn(uint256)": "infinite",
            "burnFrom(address,uint256)": "infinite",
            "checkpoints(address,uint32)": "5175",
            "clock()": "435",
            "decimals()": "289",
            "decreaseAllowance(address,uint256)": "27028",
            "delegate(address)": "infinite",
            "delegate(address,address)": "infinite",
            "delegateBySig(address,uint256,uint256,uint8,bytes32,bytes32)": "infinite",
            "delegates(address)": "2656",
            "eip712Domain()": "infinite",
            "getPastTotalSupply(uint256)": "4941",
            "getPastVotes(address,uint256)": "5180",
            "getRoleAdmin(bytes32)": "2512",
            "getVotes(address)": "7072",
            "grantRole(bytes32,address)": "infinite",
            "hasRole(bytes32,address)": "2743",
            "increaseAllowance(address,uint256)": "27062",
            "name()": "infinite",
            "nonces(address)": "2661",
            "numCheckpoints(address)": "2803",
            "permit(address,address,uint256,uint256,uint8,bytes32,bytes32)": "infinite",
            "renounceRole(bytes32,address)": "29069",
            "revokeRole(bytes32,address)": "infinite",
            "supportsInterface(bytes4)": "473",
            "symbol()": "infinite",
            "totalSupply()": "2394",
            "transfer(address,uint256)": "infinite",
            "transferFrom(address,address,uint256)": "infinite"
        },
        "internal": {
            "_afterTokenTransfer(address,address,uint256)": "infinite",
            "_burn(address,uint256)": "infinite",
            "_mint(address,uint256)": "infinite"
        }
    }
}